{
  "address": "0xD44e08617950139A3C397672F96F9B3A8689De56",
  "abi": [
    {
      "anonymous": false,
      "inputs": [
        {
          "indexed": true,
          "internalType": "uint256",
          "name": "entryId",
          "type": "uint256"
        },
        {
          "indexed": true,
          "internalType": "address",
          "name": "judge",
          "type": "address"
        }
      ],
      "name": "EntryScored",
      "type": "event"
    },
    {
      "anonymous": false,
      "inputs": [
        {
          "indexed": true,
          "internalType": "uint256",
          "name": "entryId",
          "type": "uint256"
        },
        {
          "indexed": true,
          "internalType": "address",
          "name": "contestant",
          "type": "address"
        },
        {
          "indexed": false,
          "internalType": "string",
          "name": "title",
          "type": "string"
        }
      ],
      "name": "EntrySubmitted",
      "type": "event"
    },
    {
      "anonymous": false,
      "inputs": [
        {
          "indexed": true,
          "internalType": "uint256",
          "name": "entryId",
          "type": "uint256"
        },
        {
          "indexed": true,
          "internalType": "address",
          "name": "judge",
          "type": "address"
        },
        {
          "indexed": false,
          "internalType": "string",
          "name": "category",
          "type": "string"
        }
      ],
      "name": "EntryVoted",
      "type": "event"
    },
    {
      "inputs": [],
      "name": "getAllEntries",
      "outputs": [
        {
          "internalType": "uint256[]",
          "name": "ids",
          "type": "uint256[]"
        }
      ],
      "stateMutability": "view",
      "type": "function"
    },
    {
      "inputs": [
        {
          "internalType": "uint256",
          "name": "entryId",
          "type": "uint256"
        },
        {
          "internalType": "string",
          "name": "category",
          "type": "string"
        }
      ],
      "name": "getCategoryVotes",
      "outputs": [
        {
          "internalType": "euint32",
          "name": "votesHandle",
          "type": "bytes32"
        }
      ],
      "stateMutability": "view",
      "type": "function"
    },
    {
      "inputs": [
        {
          "internalType": "uint256",
          "name": "entryId",
          "type": "uint256"
        }
      ],
      "name": "getEntry",
      "outputs": [
        {
          "internalType": "uint256",
          "name": "id",
          "type": "uint256"
        },
        {
          "internalType": "address",
          "name": "contestant",
          "type": "address"
        },
        {
          "internalType": "string",
          "name": "title",
          "type": "string"
        },
        {
          "internalType": "string",
          "name": "descriptionHash",
          "type": "string"
        },
        {
          "internalType": "string",
          "name": "fileHash",
          "type": "string"
        },
        {
          "internalType": "string[]",
          "name": "tags",
          "type": "string[]"
        },
        {
          "internalType": "string[]",
          "name": "categories",
          "type": "string[]"
        },
        {
          "internalType": "uint64",
          "name": "timestamp",
          "type": "uint64"
        },
        {
          "internalType": "euint32",
          "name": "scoresHandle",
          "type": "bytes32"
        }
      ],
      "stateMutability": "view",
      "type": "function"
    },
    {
      "inputs": [],
      "name": "nextEntryId",
      "outputs": [
        {
          "internalType": "uint256",
          "name": "",
          "type": "uint256"
        }
      ],
      "stateMutability": "view",
      "type": "function"
    },
    {
      "inputs": [],
      "name": "protocolId",
      "outputs": [
        {
          "internalType": "uint256",
          "name": "",
          "type": "uint256"
        }
      ],
      "stateMutability": "pure",
      "type": "function"
    },
    {
      "inputs": [
        {
          "internalType": "uint256",
          "name": "entryId",
          "type": "uint256"
        }
      ],
      "name": "scoreEntry",
      "outputs": [],
      "stateMutability": "nonpayable",
      "type": "function"
    },
    {
      "inputs": [
        {
          "internalType": "string",
          "name": "title",
          "type": "string"
        },
        {
          "internalType": "string",
          "name": "descriptionHash",
          "type": "string"
        },
        {
          "internalType": "string",
          "name": "fileHash",
          "type": "string"
        },
        {
          "internalType": "string[]",
          "name": "tags",
          "type": "string[]"
        },
        {
          "internalType": "string[]",
          "name": "categories",
          "type": "string[]"
        }
      ],
      "name": "submitEntry",
      "outputs": [
        {
          "internalType": "uint256",
          "name": "entryId",
          "type": "uint256"
        }
      ],
      "stateMutability": "nonpayable",
      "type": "function"
    },
    {
      "inputs": [
        {
          "internalType": "uint256",
          "name": "entryId",
          "type": "uint256"
        },
        {
          "internalType": "string",
          "name": "category",
          "type": "string"
        }
      ],
      "name": "voteEntry",
      "outputs": [],
      "stateMutability": "nonpayable",
      "type": "function"
    }
  ],
  "transactionHash": "0xa5ca98d8fb52da9cf2b9ac51b0f026c223aee7800b5bbced3da9ea3665caafb3",
  "args": [],
  "numDeployments": 1,
  "solcInputHash": "7d6fefa109ef2087a2354e71fe51bf3a",
  "bytecode": "0x608060405260015f55348015610013575f5ffd5b5061018e6100b2604080516080810182525f808252602082018190529181018290526060810191909152506040805160808101825273687820221192c5b662b25367f70076a37bc79b6c815273848b0066793bcc60346da1f49049357399b8d595602082015273a02cda4ca3a71d7c46997716f4283aa851c2881291810191909152731364cbbf2cdf5032c47d8226a6f6fbd2afcdacac606082015290565b80517f9e7b61f58c47dc699ac88507c4f5bb9f121c03808c5676a8078fe583e464970080546001600160a01b03199081166001600160a01b039384161790915560208301517f9e7b61f58c47dc699ac88507c4f5bb9f121c03808c5676a8078fe583e46497018054831691841691909117905560408301517f9e7b61f58c47dc699ac88507c4f5bb9f121c03808c5676a8078fe583e46497028054831691841691909117905560608301517f9e7b61f58c47dc699ac88507c4f5bb9f121c03808c5676a8078fe583e46497038054909216921691909117905550565b61143f8061019b5f395ff3fe608060405234801561000f575f5ffd5b5060043610610085575f3560e01c80638eecb05a116100585780638eecb05a146100ec578063bae78d7b146100ff578063da1f12ab14610127578063e6b2cf6c1461012f575f5ffd5b8063152069e6146100895780631dba48071461009e5780634a0364e8146100c457806353310147146100d9575b5f5ffd5b61009c610097366004610dfd565b610137565b005b6100b16100ac366004610e59565b610214565b6040519081526020015b60405180910390f35b6100cc61024f565b6040516100bb9190610ea1565b6100b16100e7366004610f24565b6102a5565b61009c6100fa366004610e59565b6104a7565b61011261010d366004610dfd565b610707565b6040516100bb999897969594939291906110ac565b6127116100b1565b6100b15f5481565b5f818152600160208190526040909120908101546001600160a01b03166101975760405162461bcd60e51b815260206004820152600f60248201526e115b9d1c9e481b9bdd08199bdd5b99608a1b60448201526064015b60405180910390fd5b6101a681600701546001610b11565b600782018190556101b690610b3c565b50600781015460018201546101d491906001600160a01b0316610b4b565b506101e3816007015433610b5d565b50604051339083907fef5623e93c2af74e92f1c49ad427fa4eb5d4de7e4352da4ed4ea5a0ec7dd5d46905f90a35050565b5f5f8383604051610226929190611147565b60408051918290039091205f968752600360209081528288209188525290942054949350505050565b6060600280548060200260200160405190810160405280929190818152602001828054801561029b57602002820191905f5260205f20905b815481526020019060010190808311610287575b5050505050905090565b5f805481806102b383611156565b9190505590505f6102c35f610b68565b5f83815260016020819052604090912084815590810180547fffffffffffffffffffffffff00000000000000000000000000000000000000001633179055909150600281016103138d8f83611212565b50600381016103238b8d83611212565b5060048101610333898b83611212565b5060088101805467ffffffffffffffff19164267ffffffffffffffff16179055600781018290555f5b868110156103b4578160050188888381811061037a5761037a6112cc565b905060200281019061038c91906112e0565b82546001810184555f9384526020909320909201916103ab9183611212565b5060010161035c565b505f5b8481101561040f57816006018686838181106103d5576103d56112cc565b90506020028101906103e791906112e0565b82546001810184555f9384526020909320909201916104069183611212565b506001016103b7565b5061041d8160070154610b3c565b5061042c816007015433610b4b565b50600283908060018154018082558091505060019003905f5260205f20015f9091909190915055336001600160a01b0316837f1d757c880bd3e669e02148cc1f4b862ab3a4bd8d1b84ffdb2f0d41340f2c9cba8f8f60405161048f929190611323565b60405180910390a350509a9950505050505050505050565b5f838152600160208190526040909120908101546001600160a01b03166105025760405162461bcd60e51b815260206004820152600f60248201526e115b9d1c9e481b9bdd08199bdd5b99608a1b604482015260640161018e565b5f805b6006830154811015610571578484604051610521929190611147565b604051809103902083600601828154811061053e5761053e6112cc565b905f5260205f20016040516105539190611351565b6040518091039020036105695760019150610571565b600101610505565b50806105e55760405162461bcd60e51b815260206004820152602660248201527f456e74727920646f6573206e6f742062656c6f6e6720746f207468697320636160448201527f7465676f72790000000000000000000000000000000000000000000000000000606482015260840161018e565b5f84846040516105f6929190611147565b60408051918290039091205f888152600360209081528382208383528152838220548a8352600482528483208484529091529290205490925060ff166106655761063f5f610b68565b5f8881526004602090815260408083208684529091529020805460ff1916600117905590505b610670816001610b11565b5f8881526003602090815260408083208684529091529020819055905061069681610b3c565b5060018401546106b09082906001600160a01b0316610b4b565b506106bb8133610b5d565b50336001600160a01b0316877dcbe3a7fbce68ee88ed911e1670e2c10e4a312dd8e1fb907b5c682d1e963388886040516106f6929190611323565b60405180910390a350505050505050565b5f81815260016020819052604082209081015482916060918291829182918291879182916001600160a01b03166107725760405162461bcd60e51b815260206004820152600f60248201526e115b9d1c9e481b9bdd08199bdd5b99608a1b604482015260640161018e565b80546001820154600883015460078401546002850180546001600160a01b0390941693909260038701926004880192600589019260068a019267ffffffffffffffff9091169187906107c39061118e565b80601f01602080910402602001604051908101604052809291908181526020018280546107ef9061118e565b801561083a5780601f106108115761010080835404028352916020019161083a565b820191905f5260205f20905b81548152906001019060200180831161081d57829003601f168201915b5050505050965085805461084d9061118e565b80601f01602080910402602001604051908101604052809291908181526020018280546108799061118e565b80156108c45780601f1061089b576101008083540402835291602001916108c4565b820191905f5260205f20905b8154815290600101906020018083116108a757829003601f168201915b505050505095508480546108d79061118e565b80601f01602080910402602001604051908101604052809291908181526020018280546109039061118e565b801561094e5780601f106109255761010080835404028352916020019161094e565b820191905f5260205f20905b81548152906001019060200180831161093157829003601f168201915b5050505050945083805480602002602001604051908101604052809291908181526020015f905b82821015610a1d578382905f5260205f200180546109929061118e565b80601f01602080910402602001604051908101604052809291908181526020018280546109be9061118e565b8015610a095780601f106109e057610100808354040283529160200191610a09565b820191905f5260205f20905b8154815290600101906020018083116109ec57829003601f168201915b505050505081526020019060010190610975565b50505050935082805480602002602001604051908101604052809291908181526020015f905b82821015610aeb578382905f5260205f20018054610a609061118e565b80601f0160208091040260200160405190810160405280929190818152602001828054610a8c9061118e565b8015610ad75780601f10610aae57610100808354040283529160200191610ad7565b820191905f5260205f20905b815481529060010190602001808311610aba57829003601f168201915b505050505081526020019060010190610a43565b505050509250995099509950995099509950995099509950509193959799909294969850565b5f82610b2357610b205f610b68565b92505b610b358363ffffffff84166001610b80565b9392505050565b5f610b478230610c60565b5090565b5f610b568383610c60565b5090919050565b5f610b568383610ce7565b5f610b7a8263ffffffff166004610d40565b92915050565b5f5f8215610b935750600160f81b610b96565b505f5b5f7f9e7b61f58c47dc699ac88507c4f5bb9f121c03808c5676a8078fe583e4649700600181015460405163022f65e760e31b815260048101899052602481018890527fff00000000000000000000000000000000000000000000000000000000000000851660448201529192506001600160a01b03169063117b2f38906064016020604051808303815f875af1158015610c32573d5f5f3e3d5ffd5b505050506040513d601f19601f82011682018060405250810190610c5691906113c2565b9695505050505050565b7f9e7b61f58c47dc699ac88507c4f5bb9f121c03808c5676a8078fe583e46497008054604051635ca4b5b160e11b8152600481018590526001600160a01b0384811660248301529091169063b9496b62906044015b5f604051808303815f87803b158015610ccc575f5ffd5b505af1158015610cde573d5f5f3e3d5ffd5b50505050505050565b7f9e7b61f58c47dc699ac88507c4f5bb9f121c03808c5676a8078fe583e46497008054604051630f8e573b60e21b8152600481018590526001600160a01b03848116602483015290911690633e395cec90604401610cb5565b7f9e7b61f58c47dc699ac88507c4f5bb9f121c03808c5676a8078fe583e464970154604051639cd07acb60e01b81525f917f9e7b61f58c47dc699ac88507c4f5bb9f121c03808c5676a8078fe583e4649700916001600160a01b0390911690639cd07acb90610db590879087906004016113d9565b6020604051808303815f875af1158015610dd1573d5f5f3e3d5ffd5b505050506040513d601f19601f82011682018060405250810190610df591906113c2565b949350505050565b5f60208284031215610e0d575f5ffd5b5035919050565b5f5f83601f840112610e24575f5ffd5b50813567ffffffffffffffff811115610e3b575f5ffd5b602083019150836020828501011115610e52575f5ffd5b9250929050565b5f5f5f60408486031215610e6b575f5ffd5b83359250602084013567ffffffffffffffff811115610e88575f5ffd5b610e9486828701610e14565b9497909650939450505050565b602080825282518282018190525f918401906040840190835b81811015610ed8578351835260209384019390920191600101610eba565b509095945050505050565b5f5f83601f840112610ef3575f5ffd5b50813567ffffffffffffffff811115610f0a575f5ffd5b6020830191508360208260051b8501011115610e52575f5ffd5b5f5f5f5f5f5f5f5f5f5f60a08b8d031215610f3d575f5ffd5b8a3567ffffffffffffffff811115610f53575f5ffd5b610f5f8d828e01610e14565b909b5099505060208b013567ffffffffffffffff811115610f7e575f5ffd5b610f8a8d828e01610e14565b90995097505060408b013567ffffffffffffffff811115610fa9575f5ffd5b610fb58d828e01610e14565b90975095505060608b013567ffffffffffffffff811115610fd4575f5ffd5b610fe08d828e01610ee3565b90955093505060808b013567ffffffffffffffff811115610fff575f5ffd5b61100b8d828e01610ee3565b915080935050809150509295989b9194979a5092959850565b5f81518084528060208401602086015e5f602082860101526020601f19601f83011685010191505092915050565b5f82825180855260208501945060208160051b830101602085015f5b838110156110a057601f1985840301885261108a838351611024565b602098890198909350919091019060010161106e565b50909695505050505050565b8981526001600160a01b038916602082015261012060408201525f6110d561012083018a611024565b82810360608401526110e7818a611024565b905082810360808401526110fb8189611024565b905082810360a084015261110f8188611052565b905082810360c08401526111238187611052565b67ffffffffffffffff9590951660e084015250506101000152979650505050505050565b818382375f9101908152919050565b5f6001820161117357634e487b7160e01b5f52601160045260245ffd5b5060010190565b634e487b7160e01b5f52604160045260245ffd5b600181811c908216806111a257607f821691505b6020821081036111c057634e487b7160e01b5f52602260045260245ffd5b50919050565b601f82111561120d57805f5260205f20601f840160051c810160208510156111eb5750805b601f840160051c820191505b8181101561120a575f81556001016111f7565b50505b505050565b67ffffffffffffffff83111561122a5761122a61117a565b61123e83611238835461118e565b836111c6565b5f601f84116001811461126f575f85156112585750838201355b5f19600387901b1c1916600186901b17835561120a565b5f83815260208120601f198716915b8281101561129e578685013582556020948501946001909201910161127e565b50868210156112ba575f1960f88860031b161c19848701351681555b505060018560011b0183555050505050565b634e487b7160e01b5f52603260045260245ffd5b5f5f8335601e198436030181126112f5575f5ffd5b83018035915067ffffffffffffffff82111561130f575f5ffd5b602001915036819003821315610e52575f5ffd5b60208152816020820152818360408301375f818301604090810191909152601f909201601f19160101919050565b5f5f835461135e8161118e565b600182168015611375576001811461138a576113b7565b60ff19831686528115158202860193506113b7565b865f5260205f205f5b838110156113af57815488820152600190910190602001611393565b505081860193505b509195945050505050565b5f602082840312156113d2575f5ffd5b5051919050565b82815260408101605483106113fc57634e487b7160e01b5f52602160045260245ffd5b826020830152939250505056fea26469706673582212209991a69d1dd31e4c4c590be396b830263c66002aced172fc01b60f44b154303264736f6c634300081b0033",
  "devdoc": {
    "kind": "dev",
    "methods": {
      "scoreEntry(uint256)": {
        "details": " 1  gas"
      }
    },
    "title": "ArtContest  FHE ",
    "version": 1
  },
  "userdoc": {
    "kind": "user",
    "methods": {
      "getAllEntries()": {
        "notice": " ID "
      },
      "getCategoryVotes(uint256,string)": {
        "notice": ""
      },
      "getEntry(uint256)": {
        "notice": ""
      },
      "scoreEntry(uint256)": {
        "notice": " +1"
      },
      "submitEntry(string,string,string,string[],string[])": {
        "notice": " FHE  0"
      },
      "voteEntry(uint256,string)": {
        "notice": " +1"
      }
    },
    "notice": " FHE  ACL           IPFS/Arweave ",
    "version": 1
  },
  "storageLayout": {
    "storage": [
      {
        "astId": 39074,
        "contract": "contracts/ArtContest.sol:ArtContest",
        "label": "nextEntryId",
        "offset": 0,
        "slot": "0",
        "type": "t_uint256"
      },
      {
        "astId": 39079,
        "contract": "contracts/ArtContest.sol:ArtContest",
        "label": "_entries",
        "offset": 0,
        "slot": "1",
        "type": "t_mapping(t_uint256,t_struct(ContestEntry)39062_storage)"
      },
      {
        "astId": 39082,
        "contract": "contracts/ArtContest.sol:ArtContest",
        "label": "_entryIds",
        "offset": 0,
        "slot": "2",
        "type": "t_array(t_uint256)dyn_storage"
      },
      {
        "astId": 39089,
        "contract": "contracts/ArtContest.sol:ArtContest",
        "label": "_votesByEntryAndCategory",
        "offset": 0,
        "slot": "3",
        "type": "t_mapping(t_uint256,t_mapping(t_bytes32,t_userDefinedValueType(euint32)39620))"
      },
      {
        "astId": 39095,
        "contract": "contracts/ArtContest.sol:ArtContest",
        "label": "_votesInitialized",
        "offset": 0,
        "slot": "4",
        "type": "t_mapping(t_uint256,t_mapping(t_bytes32,t_bool))"
      }
    ],
    "types": {
      "t_address": {
        "encoding": "inplace",
        "label": "address",
        "numberOfBytes": "20"
      },
      "t_array(t_string_storage)dyn_storage": {
        "base": "t_string_storage",
        "encoding": "dynamic_array",
        "label": "string[]",
        "numberOfBytes": "32"
      },
      "t_array(t_uint256)dyn_storage": {
        "base": "t_uint256",
        "encoding": "dynamic_array",
        "label": "uint256[]",
        "numberOfBytes": "32"
      },
      "t_bool": {
        "encoding": "inplace",
        "label": "bool",
        "numberOfBytes": "1"
      },
      "t_bytes32": {
        "encoding": "inplace",
        "label": "bytes32",
        "numberOfBytes": "32"
      },
      "t_mapping(t_bytes32,t_bool)": {
        "encoding": "mapping",
        "key": "t_bytes32",
        "label": "mapping(bytes32 => bool)",
        "numberOfBytes": "32",
        "value": "t_bool"
      },
      "t_mapping(t_bytes32,t_userDefinedValueType(euint32)39620)": {
        "encoding": "mapping",
        "key": "t_bytes32",
        "label": "mapping(bytes32 => euint32)",
        "numberOfBytes": "32",
        "value": "t_userDefinedValueType(euint32)39620"
      },
      "t_mapping(t_uint256,t_mapping(t_bytes32,t_bool))": {
        "encoding": "mapping",
        "key": "t_uint256",
        "label": "mapping(uint256 => mapping(bytes32 => bool))",
        "numberOfBytes": "32",
        "value": "t_mapping(t_bytes32,t_bool)"
      },
      "t_mapping(t_uint256,t_mapping(t_bytes32,t_userDefinedValueType(euint32)39620))": {
        "encoding": "mapping",
        "key": "t_uint256",
        "label": "mapping(uint256 => mapping(bytes32 => euint32))",
        "numberOfBytes": "32",
        "value": "t_mapping(t_bytes32,t_userDefinedValueType(euint32)39620)"
      },
      "t_mapping(t_uint256,t_struct(ContestEntry)39062_storage)": {
        "encoding": "mapping",
        "key": "t_uint256",
        "label": "mapping(uint256 => struct ArtContest.ContestEntry)",
        "numberOfBytes": "32",
        "value": "t_struct(ContestEntry)39062_storage"
      },
      "t_string_storage": {
        "encoding": "bytes",
        "label": "string",
        "numberOfBytes": "32"
      },
      "t_struct(ContestEntry)39062_storage": {
        "encoding": "inplace",
        "label": "struct ArtContest.ContestEntry",
        "members": [
          {
            "astId": 39042,
            "contract": "contracts/ArtContest.sol:ArtContest",
            "label": "id",
            "offset": 0,
            "slot": "0",
            "type": "t_uint256"
          },
          {
            "astId": 39044,
            "contract": "contracts/ArtContest.sol:ArtContest",
            "label": "contestant",
            "offset": 0,
            "slot": "1",
            "type": "t_address"
          },
          {
            "astId": 39046,
            "contract": "contracts/ArtContest.sol:ArtContest",
            "label": "title",
            "offset": 0,
            "slot": "2",
            "type": "t_string_storage"
          },
          {
            "astId": 39048,
            "contract": "contracts/ArtContest.sol:ArtContest",
            "label": "descriptionHash",
            "offset": 0,
            "slot": "3",
            "type": "t_string_storage"
          },
          {
            "astId": 39050,
            "contract": "contracts/ArtContest.sol:ArtContest",
            "label": "fileHash",
            "offset": 0,
            "slot": "4",
            "type": "t_string_storage"
          },
          {
            "astId": 39053,
            "contract": "contracts/ArtContest.sol:ArtContest",
            "label": "tags",
            "offset": 0,
            "slot": "5",
            "type": "t_array(t_string_storage)dyn_storage"
          },
          {
            "astId": 39056,
            "contract": "contracts/ArtContest.sol:ArtContest",
            "label": "categories",
            "offset": 0,
            "slot": "6",
            "type": "t_array(t_string_storage)dyn_storage"
          },
          {
            "astId": 39059,
            "contract": "contracts/ArtContest.sol:ArtContest",
            "label": "scoresEnc",
            "offset": 0,
            "slot": "7",
            "type": "t_userDefinedValueType(euint32)39620"
          },
          {
            "astId": 39061,
            "contract": "contracts/ArtContest.sol:ArtContest",
            "label": "timestamp",
            "offset": 0,
            "slot": "8",
            "type": "t_uint64"
          }
        ],
        "numberOfBytes": "288"
      },
      "t_uint256": {
        "encoding": "inplace",
        "label": "uint256",
        "numberOfBytes": "32"
      },
      "t_uint64": {
        "encoding": "inplace",
        "label": "uint64",
        "numberOfBytes": "8"
      },
      "t_userDefinedValueType(euint32)39620": {
        "encoding": "inplace",
        "label": "euint32",
        "numberOfBytes": "32"
      }
    }
  }
}